:100000000C942A000C948B0B0C94BE0B0C944700A0
:100010000C9447000C9447000C9447000C94470044
:100020000C9447000C9447000C94EA060C94B70615
:100030000C9447000C9447000C9447000C94470024
:100040000C9447000C9447000C9447000C94470014
:100050000C94470011241FBECFE5D8E0DEBFCDBF12
:1000600011E0A0E6B0E0E8E9F6E202C005900D92EA
:10007000AE36B107D9F711E0AEE6B1E001C01D928E
:10008000AA38B107E1F70E94D4120C944A130C94D9
:100090000000EF92FF920F931F937B018C0120E0F1
:1000A00030E040E05FE40E94C50388238CF0C80183
:1000B000B70120E030E040E05FE40E94C1010E940F
:1000C000F5039B01AC01205030404040504806C031
:1000D000C801B7010E94F5039B01AC01B901CA0137
:1000E0001F910F91FF90EF900895A0E0B0E0EBE733
:1000F000F0E00C941313DC012B01FA019C91923077
:1001000008F439C1EB018881823008F433C194309E
:1001100069F4843009F02FC111969C91119789815F
:10012000981709F428C1A0E6B0E025C1843009F48D
:1001300021C18230A9F4923009F01DC19A01AD01AC
:1001400088E0EA010990AE01E90109929E0181501F
:10015000C1F7E201898111969C918923818308C1AD
:10016000923009F407C112962D903C901397EB0141
:100170008A819B811496AD90BD90CD90DC901797AD
:10018000EC80FD800E811F819101281B390BB90184
:1001900037FF04C066277727621B730B6032710537
:1001A0000CF061C0121613066CF537014801062EDB
:1001B00004C096948794779467940A94D2F721E0C8
:1001C00030E040E050E004C0220F331F441F551FB1
:1001D0006A95D2F721503040404050402E213F21B7
:1001E00040235123211531054105510521F021E01E
:1001F00030E040E050E079018A01E628F72808293C
:1002000019293CC0232BD1F1260E371E350146019A
:10021000062E04C096948794779467940A94D2F734
:1002200021E030E040E050E004C0220F331F441FC3
:10023000551F6A95D2F721503040404050402A2146
:100240003B214C215D21211531054105510521F04E
:1002500021E030E040E050E059016A01A628B728CB
:10026000C828D9280BC0821593052CF01C01AA249C
:10027000BB24650103C0EE24FF24870111969C91E5
:10028000D20111968C91981709F445C0992339F041
:10029000A80197012A193B094C095D0906C0A6016E
:1002A00095012E193F09400B510B57FD08C01182D3
:1002B0003382228224833583468357831DC081E0A5
:1002C00081833382228288279927DC01821B930B4A
:1002D000A40BB50B84839583A683B7830DC0220F2F
:1002E000331F441F551F24833583468357838281E0
:1002F000938101979383828324813581468157813D
:10030000DA01C9010197A109B1098F5F9F4FAF4F72
:10031000BF4328F30BC0918333822282EA0CFB1C7B
:100320000C1D1D1DE482F5820683178383E0808304
:10033000248135814681578157FF1AC0C901AA27F8
:1003400097FDA095BA2F81709070A070B0705695EF
:10035000479537952795822B932BA42BB52B848318
:100360009583A683B7838281938101969383828349
:10037000DF0101C0D201CD01CDB7DEB7E2E10C94BF
:100380002F13A0E2B0E0E7ECF1E00C941F136983B7
:100390007A838B839C832D833E834F835887E9E048
:1003A000EE2EF12CEC0EFD1ECE010196B7010E943F
:1003B000E6058E010F5E1F4FCE010596B8010E9423
:1003C000E6058A8991E089278A8BC701B801AE01C9
:1003D000475E5F4F0E9475000E941105A096E6E0FF
:1003E0000C943B13A0E2B0E0E8EFF1E00C941F1393
:1003F00069837A838B839C832D833E834F835887C5
:10040000F9E0EF2EF12CEC0EFD1ECE010196B701A6
:100410000E94E6058E010F5E1F4FCE010596B801C2
:100420000E94E605C701B801AE01475E5F4F0E941A
:1004300075000E941105A096E6E00C943B13A0E223
:10044000B0E0E5E2F2E00C94131369837A838B83C6
:100450009C832D833E834F835887CE010196BE0136
:10046000675F7F4F0E94E605CE010596BE016F5E75
:100470007F4F0E94E6059985923088F08989823005
:10048000C8F0943019F4823051F404C0843029F457
:10049000923081F480E690E0C6C0923049F420E0CA
:1004A0009A858A89981321E02A87CE010996BBC0D4
:1004B000823049F420E09A858A89981321E02A8BBA
:1004C000CE014196B0C02D843E844F8458886D88FB
:1004D0007E888F88988CEE24FF248701AA24BB2471
:1004E000650140E050E060E070E0E0E0F0E0C10174
:1004F00081709070892BE9F0E60CF71C081D191D1E
:100500009A01AB012A0D3B1D4C1D5D1D80E090E062
:10051000A0E0B0E0E614F7040805190520F481E036
:1005200090E0A0E0B0E0BA01A901480F591F6A1F8E
:100530007B1FAA0CBB1CCC1CDD1C97FE08C081E0F5
:1005400090E0A0E0B0E0A82AB92ACA2ADB2A3196B6
:10055000E032F10549F0660C771C881C991C569412
:10056000479437942794C3CFFA85EA892B893C892D
:100570008B859C85280F391F2E5F3F4F17C0CA01FE
:1005800081709070892B61F016950795F794E79428
:1005900080E090E0A0E0B0E8E82AF92A0A2B1B2BC3
:1005A00076956795579547952F5F3F4F77FDE7CF36
:1005B0000CC0440F551F661F771F17FD4160EE0CDE
:1005C000FF1C001F111F21503040403090E05907A0
:1005D00090E0690790E4790760F32B8F3C8FDB0193
:1005E000CA018F779070A070B07080349105A1051A
:1005F000B10561F447FD0AC0E114F10401051105DC
:1006000029F0405C5F4F6F4F7F4F40781A8EFE1786
:1006100011F081E08A8F4D8F5E8F6F8F78A383E01A
:10062000898FCE0149960E941105A096E2E10C94B3
:100630002F13A8E1B0E0EFE1F3E00C941B13698302
:100640007A838B839C832D833E834F835887B9E0C5
:10065000EB2EF12CEC0EFD1ECE010196B7010E948F
:10066000E6058E010F5E1F4FCE010596B8010E9470
:10067000E6052985223008F47EC03989323010F42D
:10068000B8017CC08A859A8989278A87243011F02D
:10069000223031F4231709F06EC060E670E06EC0BE
:1006A000343039F41D861E861F86188A1C861B86E8
:1006B00004C0323021F484E08987B7015FC02B8504
:1006C0003C858B899C89281B390B3C872B87ED84C3
:1006D000FE840F851889AD88BE88CF88D88CEA142F
:1006E000FB040C051D0540F4EE0CFF1C001F111F40
:1006F000215030403C872B8720E030E040E050E044
:1007000080E090E0A0E0B0E460E070E0EA14FB0478
:100710000C051D0540F0282B392B4A2B5B2BEA18C2
:10072000FB080C091D09B695A79597958795EE0CC2
:10073000FF1C001F111F6F5F7F4F6F31710531F775
:10074000DA01C9018F779070A070B0708034910584
:10075000A105B10561F427FD0AC0E114F10401050A
:10076000110529F0205C3F4F4F4F5F4F20782D87B8
:100770003E874F87588BBE01675F7F4FCB010E943A
:1007800011056896EAE00C943713A8E1B0E0EBECB1
:10079000F3E00C941F1369837A838B839C832D83EE
:1007A0003E834F83588789E0E82EF12CEC0EFD1E26
:1007B000CE010196B7010E94E6058E010F5E1F4F24
:1007C000CE010596B8010E94E6058985823040F089
:1007D0008989823028F0C701B8010E945E0601C0F5
:1007E0008FEF6896E6E00C943B13ACE0B0E0EBEFE3
:1007F000F3E00C94231369837A838B839C83CE016B
:100800000196BE016B5F7F4F0E94E6058D818230AD
:1008100061F1823050F1843021F48E81882351F1CE
:100820002EC02F81388537FD20C06E812F313105D4
:100830001CF06623F9F023C08EE190E0821B930B3D
:1008400029853A854B855C8504C056954795379533
:1008500027958A95D2F76623B1F05095409530954B
:1008600021953F4F4F4F5F4F0EC020E030E040E0FA
:1008700050E009C02FEF3FEF4FEF5FE704C020E0EB
:1008800030E040E050E8B901CA012C96E2E00C9457
:100890003F13A8E0B0E0EFE4F4E00C941B137B01FD
:1008A0008C01611571058105910519F482E0898338
:1008B00060C083E089838EE1C82ED12CDC82CB829C
:1008C000ED82FE820F831887C801B7010E94C2041F
:1008D000FC013197F7FF3BC0222733272E1B3F0B2C
:1008E00057016801022E04C0D694C794B794A79408
:1008F0000A94D2F740E050E060E070E081E090E0E0
:10090000A0E0B0E004C0880F991FAA1FBB1F2A9562
:10091000D2F70197A109B1098E219F21A023B1230C
:100920000097A105B10521F041E050E060E070E0E2
:100930004A295B296C297D294D835E836F837887E3
:100940008EE190E08E1B9F0B9C838B8312C03097AF
:1009500081F00E2E04C0EE0CFF1C001F111F0A9424
:10096000D2F7ED82FE820F831887CE1ADF0ADC826F
:10097000CB821A82CE0101960E9411052896EAE0E8
:100980000C943713EF92FF920F931F937B018C010E
:1009900080E0E81680E0F80681E0080780E01807AC
:1009A00088F48FEFE816F1040105110531F028F005
:1009B00088E090E0A0E0B0E017C080E090E0A0E028
:1009C000B0E012C080E0E81680E0F80680E008079A
:1009D00081E0180728F088E190E0A0E0B0E004C0D2
:1009E00080E190E0A0E0B0E020E230E040E050E0C4
:1009F000281B390B4A0B5B0B04C016950795F7941F
:100A0000E7948A95D2F7F701E859FF4F8081281BB8
:100A1000310941095109C9011F910F91FF90EF90D0
:100A20000895DF92EF92FF920F931F93FC01E480F1
:100A3000F58006811781D1808081823048F480E082
:100A400090E0A0E1B0E0E82AF92A0A2B1B2BA5C010
:100A5000843009F49FC0823021F4EE24FF24870102
:100A600005C0E114F1040105110519F4E0E0F0E01E
:100A700096C0628173819FEF623879070CF05BC08A
:100A800022E83FEF261B370B2A3131052CF020E0FE
:100A900030E040E050E02AC0B801A701022E04C0B7
:100AA00076956795579547950A94D2F781E090E03F
:100AB000A0E0B0E004C0880F991FAA1FBB1F2A95B1
:100AC000D2F70197A109B1098E219F21A023B1235B
:100AD0000097A105B10521F081E090E0A0E0B0E031
:100AE0009A01AB01282B392B4A2B5B2BDA01C90168
:100AF0008F779070A070B07080349105A105B1051A
:100B000039F427FF09C0205C3F4F4F4F5F4F04C0AF
:100B1000215C3F4F4F4F5F4FE0E0F0E02030A0E01E
:100B20003A07A0E04A07A0E45A0710F0E1E0F0E03D
:100B300079018A0127C06038710564F5FB01E1582D
:100B4000FF4FD801C7018F779070A070B0708034CC
:100B50009105A105B10539F4E7FE0DC080E490E0F0
:100B6000A0E0B0E004C08FE390E0A0E0B0E0E80EC9
:100B7000F91E0A1F1B1F17FF05C016950795F7944E
:100B8000E794319687E016950795F794E7948A9550
:100B9000D1F705C0EE24FF248701EFEFF0E06E2FC0
:100BA000679566276795902F9F77D794DD24D79414
:100BB0008E2F8695492F462B582F5D29B701CA01E4
:100BC0001F910F91FF90EF90DF900895FC01DB01E2
:100BD000408151812281622F6F7770E0221F22278E
:100BE000221F9381892F880F822B282F30E0991F95
:100BF0009927991F11969C93119721153105A9F5F5
:100C0000411551056105710511F482E037C082E894
:100C10009FEF13969C938E9312979A01AB0167E016
:100C2000220F331F441F551F6A95D1F783E08C9321
:100C30000DC0220F331F441F551F12968D919C919A
:100C40001397019713969C938E931297203080E010
:100C5000380780E0480780E4580758F314962D932E
:100C60003D934D935C93179708952F3F310579F489
:100C7000411551056105710519F484E08C930895BF
:100C800064FF03C081E08C9312C01C9210C02F57E8
:100C9000304013963C932E93129783E08C9387E019
:100CA000440F551F661F771F8A95D1F770641496FD
:100CB0004D935D936D937C93179708951F93DC017B
:100CC000FB019C91923008F447C08081823008F487
:100CD00043C0943051F411961C91843099F5818170
:100CE000682F70E0611B71093FC0843021F09230A1
:100CF00031F48230B9F18181882389F12DC01196B8
:100D00001C9111978230F1F081811817D9F4129655
:100D10002D913C911397828193818217930794F0D0
:100D200028173907BCF014968D919D910D90BC91B8
:100D3000A02D2481358146815781281739074A071C
:100D40005B0718F4112341F00AC082179307A40728
:100D5000B50740F4112319F061E070E005C06FEFB2
:100D60007FEF02C060E070E0CB011F9108951F92F9
:100D70000F920FB60F9211242F933F934F935F93CF
:100D80006F937F938F939F93AF93BF93EF93FF9353
:100D9000DF93CF93CDB7DEB780916E0190916F0155
:100DA000009729F0E0916E01F0916F010995CF91C4
:100DB000DF91FF91EF91BF91AF919F918F917F91C3
:100DC0006F915F914F913F912F910F900FBE0F90B8
:100DD0001F9018951F920F920FB60F9211242F9308
:100DE0003F934F935F936F937F938F939F93AF93B3
:100DF000BF93EF93FF93DF93CF93CDB7DEB780918F
:100E0000700190917101009729F0E0917001F091CB
:100E100071010995CF91DF91FF91EF91BF91AF9152
:100E20009F918F917F916F915F914F913F912F9102
:100E30000F900FBE0F901F901895DF93CF93CDB7F3
:100E4000DEB7A3E5B0E0E3E5F0E08081877F8C9337
:100E5000A3E5B0E0E3E5F0E080818F7B8C93A3E530
:100E6000B0E0E3E5F0E080818F7E8C93A3E5B0E015
:100E7000E3E5F0E0808180628C93CF91DF9108956B
:100E8000DF93CF930F92CDB7DEB789838981882313
:100E900031F08981883018F48981809368010F903E
:100EA000CF91DF910895DF93CF930F92CDB7DEB747
:100EB0008983E2E5F0E0898180830F90CF91DF9113
:100EC0000895DF93CF930F92CDB7DEB78983ECE51A
:100ED000F0E0898180830F90CF91DF910895DF93B7
:100EE000CF93CDB7DEB7A3E5B0E0E3E5F0E08081D6
:100EF000887F8C93A3E5B0E0E3E5F0E090818091FA
:100F00006801892B8C93CF91DF910895DF93CF9364
:100F1000CDB7DEB7A3E5B0E0E3E5F0E08081887F00
:100F20008C93CF91DF910895DF93CF93CDB7DEB748
:100F3000A9E5B0E0E9E5F0E0808181608C93CF9194
:100F4000DF910895DF93CF93CDB7DEB7A9E5B0E089
:100F5000E9E5F0E080818E7F8C93CF91DF91089559
:100F6000DF93CF93CDB7DEB7A9E5B0E0E9E5F0E0D8
:100F7000808182608C93CF91DF910895DF93CF932E
:100F8000CDB7DEB7A9E5B0E0E9E5F0E080818D7F7F
:100F90008C93CF91DF910895DF93CF9300D0CDB79D
:100FA000DEB79A83898389819A81009731F089819C
:100FB0009A8190936F0180936E010F900F90CF9163
:100FC000DF910895DF93CF9300D0CDB7DEB79A833A
:100FD000898389819A81009731F089819A819093E0
:100FE0007101809370010F900F90CF91DF91089560
:100FF000DF93CF9300D0CDB7DEB78A838A81882F65
:1010000090E0A0E0B0E0BC01CD010E944904DC0109
:10101000CB01BC01CD0120E030E048EC52E40E945D
:101020001903DC01CB01BC01CD0120E030E040E838
:1010300053E40E941F02DC01CB01BC01CD010E94E0
:101040004900DC01CB018983ECE5F0E089818083F4
:101050000F900F90CF91DF910895DF93CF930F9270
:10106000CDB7DEB7198281E064E041E00E94D30C85
:1010700081E065E041E00E94D30C81E066E040E061
:101080000E94D30C81E066E041E00E94E50D81E022
:1010900067E041E00E94D30C898180648983898163
:1010A0008F7D89838981806189838981877F898315
:1010B00089818B7F898389818160898389818D7F03
:1010C0008983AEE2B0E0EEE2F0E0808181608C9353
:1010D000EDE2F0E0898180830F90CF91DF91089558
:1010E000DF93CF9300D00F92CDB7DEB7898389818C
:1010F000282F30E03B832A838A819B8183309105AE
:1011000009F46AC02A813B812430310584F48A8144
:101110009B8181309105A1F12A813B8122303105EB
:101120000CF044C08A819B810097A1F0ADC02A8158
:101130003B812530310509F47BC08A819B81853054
:1011400091050CF45FC02A813B812630310509F4FA
:1011500085C09AC0ADE2B0E0EDE2F0E080818E7F24
:101160008C93ADE2B0E0EDE2F0E080818D7F8C9376
:10117000AEE2B0E0EEE2F0E080818E7F8C9399C029
:10118000ADE2B0E0EDE2F0E0808181608C93ADE211
:10119000B0E0EDE2F0E080818D7F8C93AEE2B0E0D4
:1011A000EEE2F0E080818E7F8C9383C0ADE2B0E010
:1011B000EDE2F0E080818E7F8C93ADE2B0E0EDE275
:1011C000F0E0808182608C93AEE2B0E0EEE2F0E08D
:1011D00080818E7F8C936DC0ADE2B0E0EDE2F0E0F7
:1011E000808181608C93ADE2B0E0EDE2F0E080813F
:1011F00082608C93AEE2B0E0EEE2F0E080818E7F20
:101200008C9357C0ADE2B0E0EDE2F0E080818E7FDC
:101210008C93ADE2B0E0EDE2F0E080818D7F8C93C5
:10122000AEE2B0E0EEE2F0E0808181608C9341C0FC
:10123000ADE2B0E0EDE2F0E0808181608C93ADE260
:10124000B0E0EDE2F0E080818D7F8C93AEE2B0E023
:10125000EEE2F0E0808181608C932BC0ADE2B0E0E3
:10126000EDE2F0E080818E7F8C93ADE2B0E0EDE2C4
:10127000F0E0808182608C93AEE2B0E0EEE2F0E0DC
:10128000808181608C9315C0ADE2B0E0EDE2F0E0CA
:1012900080818E7F8C93ADE2B0E0EDE2F0E0808162
:1012A0008D7F8C93AEE2B0E0EEE2F0E080818E7F45
:1012B0008C930F900F900F90CF91DF910895DF9353
:1012C000CF930F92CDB7DEB789838981813031F416
:1012D00081E064E040E00E94E50D05C081E064E04B
:1012E00041E00E94E50D0F90CF91DF910895DF93CB
:1012F000CF9300D0CDB7DEB78A831982EFE2F0E05A
:101300008A818083EEE2F0E080818823DCF7EFE2DF
:10131000F0E08081898389810F900F90CF91DF91D8
:101320000895DF93CF93CDB7DEB72B970FB6F89420
:10133000DEBF0FBECDBF8A836B8319828A81282FBF
:1013400030E03B872A878A859B858130910509F4A7
:1013500077C02A853B852230310509F4DDC08A85B6
:101360009B85009709F009C1A1E3B0E0E1E3F0E05B
:1013700080818B7F8C93A2E3B0E0E2E3F0E0808198
:1013800084608C938B81282F30E03987288788856B
:1013900099858130910521F12885398522303105E3
:1013A0002CF488859985009761F047C02885398598
:1013B0002230310521F1888599858330910571F1BD
:1013C0003CC0A5E5B0E0E5E5F0E080818E7F8C9340
:1013D000A5E5B0E0E5E5F0E080818D7F8C93CFC09E
:1013E000A5E5B0E0E5E5F0E0808181608C93A5E5BE
:1013F000B0E0E5E5F0E080818D7F8C93C0C0A5E58D
:10140000B0E0E5E5F0E080818E7F8C93A5E5B0E06B
:10141000E5E5F0E0808182608C93B1C0A5E5B0E0A5
:10142000E5E5F0E0808181608C93A5E5B0E0E5E53D
:10143000F0E0808182608C93A2C081E089839FC0AC
:10144000A1E3B0E0E1E3F0E08081877F8C93A2E349
:10145000B0E0E2E3F0E0808188608C938B81282FFC
:1014600030E03F832E838E819F818130910521F171
:101470002E813F81223031052CF48E819F8100978F
:1014800061F047C02E813F812230310521F18E81EC
:101490009F818330910571F13CC0A5E5B0E0E5E5A1
:1014A000F0E080818B7F8C93A5E5B0E0E5E5F0E08E
:1014B0008081877F8C9363C0A5E5B0E0E5E5F0E02F
:1014C000808184608C93A5E5B0E0E5E5F0E0808163
:1014D000877F8C9354C0A5E5B0E0E5E5F0E080811E
:1014E0008B7F8C93A5E5B0E0E5E5F0E08081886036
:1014F0008C9345C0A5E5B0E0E5E5F0E0808184602F
:101500008C93A5E5B0E0E5E5F0E0808188608C9300
:1015100036C081E0898333C0A7E3B0E0E7E3F0E0C1
:1015200080818B7F8C93A8E3B0E0E8E3F0E08081DA
:1015300084608C938B81282F30E03D832C838C81B9
:101540009D818230910531F02C813D812330310520
:1015500049F010C0A4E5B0E0E4E5F0E080818F7BC5
:101560008C930DC0A4E5B0E0E4E5F0E080818064F8
:101570008C9305C081E0898302C081E089838981E1
:101580002B960FB6F894DEBF0FBECDBFCF91DF9183
:101590000895DF93CF9300D000D0CDB7DEB78A8314
:1015A00019828A81282F30E03C832B838B819C8198
:1015B0008130910589F02B813C8122303105A1F0E9
:1015C0008B819C810097C1F4ABE5B0E0EBE5F0E0E6
:1015D000808180648C9312C0ABE5B0E0EBE5F0E075
:1015E000808180688C930AC0ABE5B0E0EBE5F0E069
:1015F000808180628C9302C081E0898389810F9011
:101600000F900F900F90CF91DF910895DF93CF93BC
:1016100000D000D0CDB7DEB78A8319828A81282F07
:1016200030E03C832B838B819C818130910589F054
:101630002B813C8122303105A1F08B819C81009768
:10164000C1F4ABE5B0E0EBE5F0E080818F7B8C93FB
:1016500012C0ABE5B0E0EBE5F0E080818F778C93D2
:101660000AC0ABE5B0E0EBE5F0E080818F7D8C93C4
:1016700002C081E0898389810F900F900F900F90B5
:10168000CF91DF910895DF93CF93CDB7DEB7AFE56C
:10169000B0E0EFE5F0E0808180688C93CF91DF913E
:1016A0000895DF93CF93CDB7DEB7AFE5B0E0EFE5B8
:1016B000F0E080818F778C93CF91DF910895DF9355
:1016C000CF9300D0CDB7DEB79A83898389819A8181
:1016D000009731F089819A81909373018093720110
:1016E0000F900F90CF91DF910895DF93CF9300D0AB
:1016F000CDB7DEB79A83898389819A81009731F0CB
:1017000089819A8190937501809374010F900F9055
:10171000CF91DF9108951F920F920FB60F9211246F
:101720002F933F934F935F936F937F938F939F93E9
:10173000AF93BF93EF93FF93DF93CF93CDB7DEB714
:101740008091720190917301009729F0E0917201EC
:10175000F09173010995CF91DF91FF91EF91BF91C6
:10176000AF919F918F917F916F915F914F913F9139
:101770002F910F900FBE0F901F9018951F920F92F0
:101780000FB60F9211242F933F934F935F936F9354
:101790007F938F939F93AF93BF93EF93FF93DF93C9
:1017A000CF93CDB7DEB7809174019091750100970A
:1017B00029F0E0917401F09175010995CF91DF91C5
:1017C000FF91EF91BF91AF919F918F917F916F9119
:1017D0005F914F913F912F910F900FBE0F901F90EF
:1017E0001895DF93CF9300D000D00F92CDB7DEB71E
:1017F0008A836B8319828A81282F30E03D832C8372
:101800008C819D8181309105D1F02C813D812230E8
:1018100031052CF48C819D81009761F01FC02C81D3
:101820003D812230310581F08C819D81833091058D
:1018300081F014C0EAE3F0E08B81808311C0E7E31C
:10184000F0E08B8180830CC0E4E3F0E08B81808347
:1018500007C0E1E3F0E08B81808302C081E08983EF
:1018600089810F900F900F900F900F90CF91DF9183
:101870000895DF93CF9300D000D00F92CDB7DEB79D
:101880008A836B8319828A81282F30E03D832C83E1
:101890008C819D8181309105D1F02C813D81223058
:1018A00031052CF48C819D81009761F01FC02C8143
:1018B0003D812230310581F08C819D8183309105FD
:1018C00081F014C0EBE3F0E08B81808311C0E8E38A
:1018D000F0E08B8180830CC0E5E3F0E08B818083B6
:1018E00007C0E2E3F0E08B81808302C081E089835E
:1018F00089810F900F900F900F900F90CF91DF91F3
:101900000895DF93CF9300D000D000D0CDB7DEB7DD
:101910008A837C836B8319828A81282F30E03E83FF
:101920002D838D819E8181309105E1F02D813E8155
:10193000223031052CF48D819E81009761F027C003
:101940002D813E8122303105A1F08D819E81833031
:101950009105B1F01CC0E9E3F0E08081EB81FC81EE
:10196000808317C0E6E3F0E08081EB81FC81808317
:1019700010C0E3E3F0E08081EB81FC81808309C04B
:10198000E0E3F0E08081EB81FC81808302C081E0B4
:101990008983898126960FB6F894DEBF0FBECDBF2E
:1019A000CF91DF910895DF93CF93CDB7DEB728971E
:1019B0000FB6F894DEBF0FBECDBF8A836B834C8316
:1019C00019828B81883008F0F4C08C81882309F05B
:1019D00077C08A81282F30E038872F838F819885C0
:1019E0008130910559F12F813885223031052CF451
:1019F0008F819885009769F060C02F8138852230EB
:101A0000310589F18F8198858330910509F440C0B3
:101A100054C0AAE3B0E0EAE3F0E08081482F8B8174
:101A2000282F30E081E090E0022E02C0880F991F3D
:101A30000A94E2F7809584238C93BDC0A7E3B0E0BD
:101A4000E7E3F0E08081482F8B81282F30E081E0B0
:101A500090E0022E02C0880F991F0A94E2F7809549
:101A600084238C93A8C0A4E3B0E0E4E3F0E0808199
:101A7000482F8B81282F30E081E090E0022E02C0B9
:101A8000880F991F0A94E2F7809584238C9393C062
:101A9000A1E3B0E0E1E3F0E08081482F8B81282FC3
:101AA00030E081E090E0022E02C0880F991F0A9476
:101AB000E2F7809584238C937EC081E089837BC08C
:101AC0008C81813009F072C08A81282F30E03E83FA
:101AD0002D838D819E818130910549F12D813E813B
:101AE000223031052CF48D819E81009761F05BC01E
:101AF0002D813E812230310571F18D819E818330AF
:101B00009105E9F150C0AAE3B0E0EAE3F0E080819A
:101B1000482F8B81282F30E081E090E0022E02C018
:101B2000880F991F0A94E2F7842B8C9344C0A7E393
:101B3000B0E0E7E3F0E08081482F8B81282F30E090
:101B400081E090E0022E02C0880F991F0A94E2F70C
:101B5000842B8C9330C0A4E3B0E0E4E3F0E0808118
:101B6000482F8B81282F30E081E090E0022E02C0C8
:101B7000880F991F0A94E2F7842B8C931CC0A1E371
:101B8000B0E0E1E3F0E08081482F8B81282F30E046
:101B900081E090E0022E02C0880F991F0A94E2F7BC
:101BA000842B8C9308C081E0898305C081E0898300
:101BB00002C081E08983898128960FB6F894DEBF40
:101BC0000FBECDBFCF91DF910895DF93CF93CDB7F7
:101BD000DEB728970FB6F894DEBF0FBECDBF8A835D
:101BE0006B834C8319828B81883008F0F4C08C8120
:101BF000813009F072C08A81282F30E038872F8326
:101C00008F8198858130910549F12F813885223067
:101C100031052CF48F819885009761F05BC02F818E
:101C200038852230310571F18F8198858330910597
:101C3000E9F150C0ABE3B0E0EBE3F0E08081482F86
:101C40008B81282F30E081E090E0022E02C0880FC7
:101C5000991F0A94E2F7842B8C93BFC0A8E3B0E0ED
:101C6000E8E3F0E08081482F8B81282F30E081E08D
:101C700090E0022E02C0880F991F0A94E2F7842B8D
:101C80008C93ABC0A5E3B0E0E5E3F0E08081482FA2
:101C90008B81282F30E081E090E0022E02C0880F77
:101CA000991F0A94E2F7842B8C9397C0A2E3B0E0CB
:101CB000E2E3F0E08081482F8B81282F30E081E043
:101CC00090E0022E02C0880F991F0A94E2F7842B3D
:101CD0008C9383C081E0898380C08C81882309F044
:101CE00077C08A81282F30E03E832D838D819E81AD
:101CF0008130910559F12D813E81223031052CF43E
:101D00008D819E81009769F060C02D813E812230D7
:101D1000310589F18D819E818330910509F440C0A0
:101D200054C0ABE3B0E0EBE3F0E08081482F8B815F
:101D3000282F30E081E090E0022E02C0880F991F2A
:101D40000A94E2F7809584238C9347C0A8E3B0E01F
:101D5000E8E3F0E08081482F8B81282F30E081E09C
:101D600090E0022E02C0880F991F0A94E2F7809536
:101D700084238C9332C0A5E3B0E0E5E3F0E08081FA
:101D8000482F8B81282F30E081E090E0022E02C0A6
:101D9000880F991F0A94E2F7809584238C931DC0C5
:101DA000A2E3B0E0E2E3F0E08081482F8B81282FAE
:101DB00030E081E090E0022E02C0880F991F0A9463
:101DC000E2F7809584238C9308C081E0898305C065
:101DD00081E0898302C081E08983898128960FB6DA
:101DE000F894DEBF0FBECDBFCF91DF910895DF9392
:101DF000CF93CDB7DEB727970FB6F894DEBF0FBEEF
:101E0000CDBF8A836B835D834C8319828B8188303D
:101E100008F074C08A81282F30E03F832E834E81E2
:101E20005F814130510559F18E819F81823091054A
:101E300034F42E813F812115310569F05CC04E815B
:101E40005F814230510579F18E819F818330910508
:101E500009F43DC050C0E9E3F0E08081282F30E074
:101E60008B81882F90E0A90102C0559547958A95EE
:101E7000E2F7CA018170EC81FD81808341C0E6E315
:101E8000F0E08081282F30E08B81882F90E0A9013D
:101E900002C0559547958A95E2F7CA018170EC8199
:101EA000FD8180832DC0E3E3F0E08081282F30E0C6
:101EB0008B81882F90E0A90102C0559547958A959E
:101EC000E2F7CA018170EC81FD81808319C0E0E3F3
:101ED000F0E08081282F30E08B81882F90E0A901ED
:101EE00002C0559547958A95E2F7CA018170EC8149
:101EF000FD81808305C081E0898302C081E0898300
:101F0000898127960FB6F894DEBF0FBECDBFCF9163
:101F1000DF910895DF93CF9300D0CDB7DEB78983EB
:101F20006A8381E00E945F0982E00E9477098981CB
:101F30000E9477098A810E94770980E00E945F09E8
:101F40000F900F90CF91DF910895DF93CF9300D042
:101F5000CDB7DEB78A8381E00E945F0983E00E94EB
:101F600077098A810E94770980E00E947709898336
:101F700080E00E945F0989810F900F90CF91DF91DF
:101F80000895DF93CF93CDB7DEB781E00E945F095C
:101F900080EC0E94770980E00E945F09CF91DF9179
:101FA0000895DF93CF9300D00F92CDB7DEB789832A
:101FB0006A834B8381E00E945F0985E00E94770974
:101FC00089810E9477098A810E9477098B810E940A
:101FD000770980E00E945F090F900F900F90CF91DA
:101FE000DF910895DF93CF9300D00F92CDB7DEB786
:101FF00089836A834B838AE269810E948A0F89E21E
:102000006A810E948A0F88E26B810E948A0F0F907A
:102010000F900F90CF91DF910895DF93CF930F92A0
:10202000CDB7DEB789838981982F9295990F907EDD
:102030008FE060EE492F0E94D10F8EE00E94A50F25
:10204000982F92959695977089819817B1F70F9070
:10205000CF91DF910895DF93CF93CDB7DEB70E9484
:102060002D080E94C10F8FE067E80E948A0F8EE062
:102070000E94A50F8295869587708430C1F780E80D
:1020800061EB45E10E94F20F80E00E940D10CF91BC
:10209000DF910895DF93CF93CDB7DEB728970FB6C2
:1020A000F894DEBF0FBECDBF8B837D836C834E83E0
:1020B00038872F8381E00E945F0982E00E947709C0
:1020C0008B810E94770983E00E9477098C819D8132
:1020D0009695879596958795969587950E94770909
:1020E0008C818295880F807E0E94770980E00E9413
:1020F000770980E00E9477098E818F700E947709AE
:102100001A8219820FC029813A818F819885FC013A
:10211000E20FF31F80810E94770989819A810196DD
:102120009A8389838E81882F90E09C012F70307074
:1021300089819A818217930734F380E00E945F09B6
:1021400081E00E945F0981E80E94770980E00E9497
:102150005F0928960FB6F894DEBF0FBECDBFCF91B2
:10216000DF910895DF93CF930F92CDB7DEB78983C8
:102170008981282F30E081E090E002C0880F991F0C
:102180002A95E2F7482F8981282F30E081E090E0FE
:1021900002C0880F991F2A95E2F7982F80E6642FD6
:1021A000492F0E94D10F0F90CF91DF910895DF93B7
:1021B000CF9300D000D0CDB7DEB789837B836A830D
:1021C0004C8381E00E945F0982E00E947709898147
:1021D0000E9477098C81882351F18A819B81969591
:1021E000879596958795969587950E9477098A8118
:1021F0008295880F807E0E9477098A819B819695BF
:1022000087959695879596958795282F8A819B81A6
:1022100099278827822B0E9477098A819B81892FA1
:1022200099278695869586950E94770910C08A81A0
:102230009B819695879596958795969587950E940B
:1022400077098A818295880F807E0E94770980E0D5
:102250000E945F090F900F900F900F90CF91DF9128
:102260000895DF93CF93CDB7DEB70E942D080E946B
:10227000C10F8FE067E80E948A0F8EE00E94A50FD1
:102280008295869587708430C1F780E861EB45E1DF
:102290000E94F20F80E260E070E041E00E94D710FF
:1022A00084E260E070E041E00E94D71081E00E948B
:1022B000B2108BE261E041E00E94D10F80E00E9409
:1022C0000D10CF91DF9108950F931F93DF93CF935C
:1022D00000D0CDB7DEB78A8381E00E945F0983E03A
:1022E0000E9477098A810E94770919820DC089812D
:1022F000082F10E080E00E947709F801E658FE4FB1
:10230000808389818F5F898389818E3080F380E02B
:102310000E945F098CE260E00E948A0F0F900F908C
:10232000CF91DF911F910F910895DF93CF93CDB798
:10233000DEB728970FB6F894DEBF0FBECDBF8A83F5
:102340007C836B835E834D8381E089838A81282F20
:1023500030E038872F838F8198858430910509F488
:1023600041C02F8138852530310584F48F819885CF
:102370008230910539F12F8138852330310554F5AC
:102380008F81988581309105B1F054C02F813885B7
:1023900026303105B9F18F8198858630910554F149
:1023A0002F81388527303105A9F18F8198858830B4
:1023B0009105C1F13FC0EB81FC811082ED81FE816E
:1023C000108239C0EB81FC811082ED81FE8181E0B9
:1023D000808331C0EB81FC811082ED81FE8182E03F
:1023E000808329C0EB81FC811082ED81FE8183E036
:1023F000808321C0EB81FC811082ED81FE8184E02D
:10240000808319C0EB81FC811082ED81FE8185E023
:10241000808311C0EB81FC811082ED81FE8186E01A
:10242000808309C0EB81FC811082ED81FE8187E011
:10243000808301C01982898128960FB6F894DEBF87
:102440000FBECDBFCF91DF910895DF93CF9300D022
:1024500000D0CDB7DEB79B838A836C83198221C0FD
:102460008981282F30E08A819B81FC01E20FF31FD4
:10247000808127E731E048E751E0B9010E949511DA
:102480008093760180917601882341F080917701D5
:1024900090917801692F41E00E94D30C89818F5F70
:1024A000898399818C819817D8F20F900F900F90A3
:1024B0000F90CF91DF910895DF93CF9300D0CDB7E8
:1024C000DEB78A8327E731E048E751E08A81B90126
:1024D0000E94951180937601809176018823F9F00E
:1024E0008091770190917801692F9E012F5F3F4F76
:1024F000A9010E94F70E8981882349F08091770114
:1025000090917801692F40E00E94E50D08C080910C
:10251000770190917801692F41E00E94E50D0F90BD
:102520000F90CF91DF910895DF93CF930F92CDB7A6
:10253000DEB7898327E731E048E751E08981B901B7
:102540000E9495118093760180917601882341F055
:102550008091770190917801692F40E00E94E50D0C
:102560000F90CF91DF910895DF93CF930F92CDB766
:10257000DEB7898327E731E048E751E08981B90177
:102580000E9495118093760180917601882341F015
:102590008091770190917801692F41E00E94E50DCB
:1025A0000F90CF91DF910895DF93CF93CDB7DEB732
:1025B00085E093E10E945F0B80E062E00E94910958
:1025C00080E00E94C90A0E94430B0E9431110E94C0
:1025D0002B10809179018C3649F429E631E080E3B3
:1025E00061EE77E042E00E944A100CC080917901D0
:1025F000823741F42BE631E080E361EE77E042E0A0
:102600000E944A1010927901E4CFDF93CF93CDB7A7
:10261000DEB780E60E946411809180018093790189
:10262000CF91DF9108952F923F924F925F926F92D8
:102630007F928F929F92AF92BF92CF92DF92EF9252
:10264000FF920F931F93CF93DF93CDB7DEB7CA1BD3
:10265000DB0B0FB6F894DEBF0FBECDBF09942A88FE
:10266000398848885F846E847D848C849B84AA84A6
:10267000B984C884DF80EE80FD800C811B81AA8133
:10268000B981CE0FD11D0FB6F894DEBF0FBECDBFFE
:08269000ED010895F894FFCF5D
:102698000000000000000000000102020303030321
:1026A80004040404040404040505050505050505DA
:1026B80005050505050505050606060606060606BA
:1026C80006060606060606060606060606060606A2
:1026D800060606060606060607070707070707078A
:1026E8000707070707070707070707070707070772
:1026F8000707070707070707070707070707070762
:102708000707070707070707070707070707070751
:102718000707070707070707080808080808080839
:102728000808080808080808080808080808080821
:102738000808080808080808080808080808080811
:102748000808080808080808080808080808080801
:1027580008080808080808080808080808080808F1
:1027680008080808080808080808080808080808E1
:1027780008080808080808080808080808080808D1
:1027880008080808080808080808080808080808C1
:0E27980008080808080808080146646446009E
:00000001FF
