:100000000C942A000C94210B0C94540B0C94870B29
:100010000C9447000C9447000C9447000C94470044
:100020000C9447000C9447000C9447000C94470034
:100030000C9447000C9473070C9447000C944700F1
:100040000C9447000C9447000C9447000C94470014
:100050000C94470011241FBECFE5D8E0DEBFCDBF12
:1000600010E0A0E6B0E0E6EAF4E302C005900D92ED
:10007000AE36B107D9F710E0AEE6B0E001C01D9290
:10008000AA39B107E1F70E9445180C94511A0C9453
:100090000000EF92FF920F931F937B018C0120E0F1
:1000A00030E040E05FE40E94F50388238CF0C80153
:1000B000B70120E030E040E05FE40E94C1010E940F
:1000C00055049B01AC01205030404040504806C0D0
:1000D000C801B7010E9455049B01AC01B901CA01D6
:1000E0001F910F91FF90EF900895A0E0B0E0EBE733
:1000F000F0E00C941A1ADC012B01FA019C91923069
:1001000008F439C1EB018881823008F433C194309E
:1001100069F4843009F02FC111969C91119789815F
:10012000981709F428C1A0E6B0E025C1843009F48D
:1001300021C18230A9F4923009F01DC19A01AD01AC
:1001400088E0EA010990AE01E90109929E0181501F
:10015000C1F7E201898111969C918923818308C1AD
:10016000923009F407C112962D903C901397EB0141
:100170008A819B811496AD90BD90CD90DC901797AD
:10018000EC80FD800E811F819101281B390BB90184
:1001900037FF04C066277727621B730B6032710537
:1001A0000CF061C0121613066CF537014801062EDB
:1001B00004C096948794779467940A94D2F721E0C8
:1001C00030E040E050E004C0220F331F441F551FB1
:1001D0006A95D2F721503040404050402E213F21B7
:1001E00040235123211531054105510521F021E01E
:1001F00030E040E050E079018A01E628F72808293C
:1002000019293CC0232BD1F1260E371E350146019A
:10021000062E04C096948794779467940A94D2F734
:1002200021E030E040E050E004C0220F331F441FC3
:10023000551F6A95D2F721503040404050402A2146
:100240003B214C215D21211531054105510521F04E
:1002500021E030E040E050E059016A01A628B728CB
:10026000C828D9280BC0821593052CF01C01AA249C
:10027000BB24650103C0EE24FF24870111969C91E5
:10028000D20111968C91981709F445C0992339F041
:10029000A80197012A193B094C095D0906C0A6016E
:1002A00095012E193F09400B510B57FD08C01182D3
:1002B0003382228224833583468357831DC081E0A5
:1002C00081833382228288279927DC01821B930B4A
:1002D000A40BB50B84839583A683B7830DC0220F2F
:1002E000331F441F551F24833583468357838281E0
:1002F000938101979383828324813581468157813D
:10030000DA01C9010197A109B1098F5F9F4FAF4F72
:10031000BF4328F30BC0918333822282EA0CFB1C7B
:100320000C1D1D1DE482F5820683178383E0808304
:10033000248135814681578157FF1AC0C901AA27F8
:1003400097FDA095BA2F81709070A070B0705695EF
:10035000479537952795822B932BA42BB52B848318
:100360009583A683B7838281938101969383828349
:10037000DF0101C0D201CD01CDB7DEB7E2E10C94BF
:10038000361AA0E2B0E0E7ECF1E00C94261A69839B
:100390007A838B839C832D833E834F835887E9E048
:1003A000EE2EF12CEC0EFD1ECE010196B7010E943F
:1003B0007E058E010F5E1F4FCE010596B8010E948B
:1003C0007E058A8991E089278A8BC701B801AE0131
:1003D000475E5F4F0E9475000E94A904A096E6E068
:1003E0000C94421AA0E2B0E0E8EFF1E00C94261A77
:1003F00069837A838B839C832D833E834F835887C5
:10040000F9E0EF2EF12CEC0EFD1ECE010196B701A6
:100410000E947E058E010F5E1F4FCE010596B8012A
:100420000E947E05C701B801AE01475E5F4F0E9482
:1004300075000E94A904A096E6E00C94421AA0E27E
:10044000B0E0E5E2F2E00C941A1A69837A838B83B8
:100450009C832D833E834F835887CE010196BE0136
:10046000675F7F4F0E947E05CE010596BE016F5EDD
:100470007F4F0E947E059985923088F0898982306D
:10048000C8F0943019F4823051F404C0843029F457
:10049000923081F480E690E0C6C0923049F420E0CA
:1004A0009A858A89981321E02A87CE010996BBC0D4
:1004B000823049F420E09A858A89981321E02A8BBA
:1004C000CE014196B0C02D843E844F8458886D88FB
:1004D0007E888F88988CEE24FF248701AA24BB2471
:1004E000650140E050E060E070E0E0E0F0E0C10174
:1004F00081709070892BE9F0E60CF71C081D191D1E
:100500009A01AB012A0D3B1D4C1D5D1D80E090E062
:10051000A0E0B0E0E614F7040805190520F481E036
:1005200090E0A0E0B0E0BA01A901480F591F6A1F8E
:100530007B1FAA0CBB1CCC1CDD1C97FE08C081E0F5
:1005400090E0A0E0B0E0A82AB92ACA2ADB2A3196B6
:10055000E032F10549F0660C771C881C991C569412
:10056000479437942794C3CFFA85EA892B893C892D
:100570008B859C85280F391F2E5F3F4F17C0CA01FE
:1005800081709070892B61F016950795F794E79428
:1005900080E090E0A0E0B0E8E82AF92A0A2B1B2BC3
:1005A00076956795579547952F5F3F4F77FDE7CF36
:1005B0000CC0440F551F661F771F17FD4160EE0CDE
:1005C000FF1C001F111F21503040403090E05907A0
:1005D00090E0690790E4790760F32B8F3C8FDB0193
:1005E000CA018F779070A070B07080349105A1051A
:1005F000B10561F447FD0AC0E114F10401051105DC
:1006000029F0405C5F4F6F4F7F4F40781A8EFE1786
:1006100011F081E08A8F4D8F5E8F6F8F78A383E01A
:10062000898FCE0149960E94A904A096E2E10C941C
:10063000361AA8E1B0E0EFE1F3E00C94221A6983E6
:100640007A838B839C832D833E834F835887B9E0C5
:10065000EB2EF12CEC0EFD1ECE010196B7010E948F
:100660007E058E010F5E1F4FCE010596B8010E94D8
:100670007E052985223008F47EC03989323010F495
:10068000B8017CC08A859A8989278A87243011F02D
:10069000223031F4231709F06EC060E670E06EC0BE
:1006A000343039F41D861E861F86188A1C861B86E8
:1006B00004C0323021F484E08987B7015FC02B8504
:1006C0003C858B899C89281B390B3C872B87ED84C3
:1006D000FE840F851889AD88BE88CF88D88CEA142F
:1006E000FB040C051D0540F4EE0CFF1C001F111F40
:1006F000215030403C872B8720E030E040E050E044
:1007000080E090E0A0E0B0E460E070E0EA14FB0478
:100710000C051D0540F0282B392B4A2B5B2BEA18C2
:10072000FB080C091D09B695A79597958795EE0CC2
:10073000FF1C001F111F6F5F7F4F6F31710531F775
:10074000DA01C9018F779070A070B0708034910584
:10075000A105B10561F427FD0AC0E114F10401050A
:10076000110529F0205C3F4F4F4F5F4F20782D87B8
:100770003E874F87588BBE01675F7F4FCB010E943A
:10078000A9046896EAE00C943E1AA8E1B0E0EBEC0C
:10079000F3E00C94261A69837A838B839C832D83E0
:1007A0003E834F83588789E0E82EF12CEC0EFD1E26
:1007B000CE010196B7010E947E058E010F5E1F4F8C
:1007C000CE010596B8010E947E058985823040F0F1
:1007D0008989823028F0C701B8010E94F60501C05E
:1007E0008FEF6896E6E00C94421AA8E1B0E0EBEFD8
:1007F000F3E00C94261A69837A838B839C832D8380
:100800003E834F83588789E0E82EF12CEC0EFD1EC5
:10081000CE010196B7010E947E058E010F5E1F4F2B
:10082000CE010596B8010E947E058985823040F090
:100830008989823028F0C701B8010E94F60501C0FD
:100840008FEF6896E6E00C94421AA8E1B0E0EBE284
:10085000F4E00C94261A69837A838B839C832D831E
:100860003E834F83588789E0E82EF12CEC0EFD1E65
:10087000CE010196B7010E947E058E010F5E1F4FCB
:10088000CE010596B8010E947E058985823040F030
:100890008989823028F0C701B8010E94F60501C09D
:1008A00081E06896E6E00C94421AACE0B0E0EBE53B
:1008B000F4E00C942A1A69837A838B839C83CE019B
:1008C0000196BE016B5F7F4F0E947E058D81823055
:1008D00061F1823050F1843021F48E81882351F10E
:1008E0002EC02F81388537FD20C06E812F31310514
:1008F0001CF06623F9F023C08EE190E0821B930B7D
:1009000029853A854B855C8504C056954795379572
:1009100027958A95D2F76623B1F05095409530958A
:1009200021953F4F4F4F5F4F0EC020E030E040E039
:1009300050E009C02FEF3FEF4FEF5FE704C020E02A
:1009400030E040E050E8B901CA012C96E2E00C9496
:10095000461ADF92EF92FF920F931F93FC01E480FF
:10096000F58006811781D1808081823048F480E053
:1009700090E0A0E1B0E0E82AF92A0A2B1B2BA5C0E1
:10098000843009F49FC0823021F4EE24FF248701D3
:1009900005C0E114F1040105110519F4E0E0F0E0EF
:1009A00096C0628173819FEF623879070CF05BC05B
:1009B00022E83FEF261B370B2A3131052CF020E0CF
:1009C00030E040E050E02AC0B801A701022E04C088
:1009D00076956795579547950A94D2F781E090E010
:1009E000A0E0B0E004C0880F991FAA1FBB1F2A9582
:1009F000D2F70197A109B1098E219F21A023B1232C
:100A00000097A105B10521F081E090E0A0E0B0E001
:100A10009A01AB01282B392B4A2B5B2BDA01C90138
:100A20008F779070A070B07080349105A105B105EA
:100A300039F427FF09C0205C3F4F4F4F5F4F04C080
:100A4000215C3F4F4F4F5F4FE0E0F0E02030A0E0EF
:100A50003A07A0E04A07A0E45A0710F0E1E0F0E00E
:100A600079018A0127C06038710564F5FB01E158FE
:100A7000FF4FD801C7018F779070A070B07080349D
:100A80009105A105B10539F4E7FE0DC080E490E0C1
:100A9000A0E0B0E004C08FE390E0A0E0B0E0E80E9A
:100AA000F91E0A1F1B1F17FF05C016950795F7941F
:100AB000E794319687E016950795F794E7948A9521
:100AC000D1F705C0EE24FF248701EFEFF0E06E2F91
:100AD000679566276795902F9F77D794DD24D794E5
:100AE0008E2F8695492F462B582F5D29B701CA01B5
:100AF0001F910F91FF90EF90DF900895FC01DB01B3
:100B0000408151812281622F6F7770E0221F22275E
:100B1000221F9381892F880F822B282F30E0991F65
:100B20009927991F11969C93119721153105A9F5C5
:100B3000411551056105710511F482E037C082E865
:100B40009FEF13969C938E9312979A01AB0167E0E7
:100B5000220F331F441F551F6A95D1F783E08C93F2
:100B60000DC0220F331F441F551F12968D919C916B
:100B70001397019713969C938E931297203080E0E1
:100B8000380780E0480780E4580758F314962D93FF
:100B90003D934D935C93179708952F3F310579F45A
:100BA000411551056105710519F484E08C93089590
:100BB00064FF03C081E08C9312C01C9210C02F57B9
:100BC000304013963C932E93129783E08C9387E0EA
:100BD000440F551F661F771F8A95D1F770641496CE
:100BE0004D935D936D937C93179708951F93DC014C
:100BF000FB019C91923008F447C08081823008F458
:100C000043C0943051F411961C91843099F5818140
:100C1000682F70E0611B71093FC0843021F0923071
:100C200031F48230B9F18181882389F12DC0119688
:100C30001C9111978230F1F081811817D9F4129626
:100C40002D913C911397828193818217930794F0A1
:100C500028173907BCF014968D919D910D90BC9189
:100C6000A02D2481358146815781281739074A07ED
:100C70005B0718F4112341F00AC082179307A407F9
:100C8000B50740F4112319F061E070E005C06FEF83
:100C90007FEF02C060E070E0CB011F910895DF9309
:100CA000CF9300D00F92CDB7DEB79B838A8381E0CC
:100CB00089838A819B81009719F482E0898399C096
:100CC000ABE2B0E0EBE2F0E080818D7F8C93ABE2B1
:100CD000B0E0EBE2F0E08081282FEA81FB818481A3
:100CE000882F90E0880F991F822B8C93EA81FB81DB
:100CF0008481882341F4E0E4F0E01082E9E2F0E04E
:100D000083E380830EC0EA81FB818481813041F4DA
:100D1000E0E4F0E01082E9E2F0E087E6808301C0E1
:100D20001982EA81FB818181882321F1EA81FB819B
:100D30008181843079F4AAE2B0E0EAE2F0E08081D7
:100D400084608C93A0E4B0E0E0E4F0E08081866809
:100D50008C9310C0A0E4B0E0E0E4F0E08081282FA4
:100D6000EA81FB818181882F90E0880F991F80683C
:100D7000822B8C93EA81FB8182818823A1F0A0E4FD
:100D8000B0E0E0E4F0E08081282FEA81FB818281FD
:100D9000882F90E082959295907F9827807F982762
:100DA0008068822B8C93EA81FB818381882339F0D0
:100DB000A0E4B0E0E0E4F0E0808188688C93AAE2EF
:100DC000B0E0EAE2F0E08081877E8C93AAE2B0E0B6
:100DD000EAE2F0E08081282FEA81FB818081882F80
:100DE00090E0880F991F880F991F880F991F822BF9
:100DF0008C9389810F900F900F90CF91DF91089580
:100E0000DF93CF9300D00F92CDB7DEB79B838A8359
:100E100081E08983EBE2F0E080818295869587709E
:100E2000882F90E0817090700097A1F3ECE2F0E0E1
:100E30008A81808389810F900F900F90CF91DF91ED
:100E40000895DF93CF9300D00F92CDB7DEB79B8389
:100E50008A8381E089838A819B81009719F482E0EB
:100E600089830EC0EBE2F0E080818823DCF7ECE2BE
:100E7000F0E08081882F90E0EA81FB81918380837C
:100E800089810F900F900F90CF91DF910895DF939C
:100E9000CF9300D00F92CDB7DEB79B838A8381E0DA
:100EA00089838A819B810097A9F08A819B81909395
:100EB0006F0080936E00AFE5B0E0EFE5F0E0808179
:100EC00080688C93AAE2B0E0EAE2F0E0808180687A
:100ED0008C9302C082E0898389810F900F900F90DC
:100EE000CF91DF9108951F920F920FB60F921124A8
:100EF0002F933F934F935F936F937F938F939F9322
:100F0000AF93BF93EF93FF93DF93CF930F92CDB740
:100F1000DEB7ECE2F0E08081898380916E009091F1
:100F20006F00009731F0E0916E00F0916F008981C1
:100F300009950F90CF91DF91FF91EF91BF91AF9104
:100F40009F918F917F916F915F914F913F912F91E1
:100F50000F900FBE0F901F901895DF93CF930F92B5
:100F6000CDB7DEB7198281E064E041E00E949C0CBD
:100F700081E065E041E00E949C0C81E066E040E099
:100F80000E949C0C81E066E041E00E94AE0D81E091
:100F900067E041E00E949C0C89818064898389819B
:100FA0008F7D89838981806189838981877F898316
:100FB00089818B7F898389818160898389818D7F04
:100FC0008983AEE2B0E0EEE2F0E0808181608C9354
:100FD000EDE2F0E0898180830F90CF91DF91089559
:100FE000DF93CF9300D00F92CDB7DEB7898389818D
:100FF000282F30E03B832A838A819B8183309105AF
:1010000009F46AC02A813B812430310584F48A8145
:101010009B8181309105A1F12A813B8122303105EC
:101020000CF044C08A819B810097A1F0ADC02A8159
:101030003B812530310509F47BC08A819B81853055
:1010400091050CF45FC02A813B812630310509F4FB
:1010500085C09AC0ADE2B0E0EDE2F0E080818E7F25
:101060008C93ADE2B0E0EDE2F0E080818D7F8C9377
:10107000AEE2B0E0EEE2F0E080818E7F8C9399C02A
:10108000ADE2B0E0EDE2F0E0808181608C93ADE212
:10109000B0E0EDE2F0E080818D7F8C93AEE2B0E0D5
:1010A000EEE2F0E080818E7F8C9383C0ADE2B0E011
:1010B000EDE2F0E080818E7F8C93ADE2B0E0EDE276
:1010C000F0E0808182608C93AEE2B0E0EEE2F0E08E
:1010D00080818E7F8C936DC0ADE2B0E0EDE2F0E0F8
:1010E000808181608C93ADE2B0E0EDE2F0E0808140
:1010F00082608C93AEE2B0E0EEE2F0E080818E7F21
:101100008C9357C0ADE2B0E0EDE2F0E080818E7FDD
:101110008C93ADE2B0E0EDE2F0E080818D7F8C93C6
:10112000AEE2B0E0EEE2F0E0808181608C9341C0FD
:10113000ADE2B0E0EDE2F0E0808181608C93ADE261
:10114000B0E0EDE2F0E080818D7F8C93AEE2B0E024
:10115000EEE2F0E0808181608C932BC0ADE2B0E0E4
:10116000EDE2F0E080818E7F8C93ADE2B0E0EDE2C5
:10117000F0E0808182608C93AEE2B0E0EEE2F0E0DD
:10118000808181608C9315C0ADE2B0E0EDE2F0E0CB
:1011900080818E7F8C93ADE2B0E0EDE2F0E0808163
:1011A0008D7F8C93AEE2B0E0EEE2F0E080818E7F46
:1011B0008C930F900F900F90CF91DF910895DF9354
:1011C000CF930F92CDB7DEB789838981813031F417
:1011D00081E064E040E00E94AE0D05C081E064E083
:1011E00041E00E94AE0D0F90CF91DF910895DF9303
:1011F000CF9300D0CDB7DEB78A831982EFE2F0E05B
:101200008A818083EEE2F0E080818823DCF7EFE2E0
:10121000F0E08081898389810F900F90CF91DF91D9
:101220000895DF93CF93CDB7DEB72B970FB6F89421
:10123000DEBF0FBECDBF8A836B8319828A81282FC0
:1012400030E03B872A878A859B858130910509F4A8
:1012500077C02A853B852230310509F4DDC08A85B7
:101260009B85009709F009C1A1E3B0E0E1E3F0E05C
:1012700080818B7F8C93A2E3B0E0E2E3F0E0808199
:1012800084608C938B81282F30E03987288788856C
:1012900099858130910521F12885398522303105E4
:1012A0002CF488859985009761F047C02885398599
:1012B0002230310521F1888599858330910571F1BE
:1012C0003CC0A5E5B0E0E5E5F0E080818E7F8C9341
:1012D000A5E5B0E0E5E5F0E080818D7F8C93CFC09F
:1012E000A5E5B0E0E5E5F0E0808181608C93A5E5BF
:1012F000B0E0E5E5F0E080818D7F8C93C0C0A5E58E
:10130000B0E0E5E5F0E080818E7F8C93A5E5B0E06C
:10131000E5E5F0E0808182608C93B1C0A5E5B0E0A6
:10132000E5E5F0E0808181608C93A5E5B0E0E5E53E
:10133000F0E0808182608C93A2C081E089839FC0AD
:10134000A1E3B0E0E1E3F0E08081877F8C93A2E34A
:10135000B0E0E2E3F0E0808188608C938B81282FFD
:1013600030E03F832E838E819F818130910521F172
:101370002E813F81223031052CF48E819F81009790
:1013800061F047C02E813F812230310521F18E81ED
:101390009F818330910571F13CC0A5E5B0E0E5E5A2
:1013A000F0E080818B7F8C93A5E5B0E0E5E5F0E08F
:1013B0008081877F8C9363C0A5E5B0E0E5E5F0E030
:1013C000808184608C93A5E5B0E0E5E5F0E0808164
:1013D000877F8C9354C0A5E5B0E0E5E5F0E080811F
:1013E0008B7F8C93A5E5B0E0E5E5F0E08081886037
:1013F0008C9345C0A5E5B0E0E5E5F0E08081846030
:101400008C93A5E5B0E0E5E5F0E0808188608C9301
:1014100036C081E0898333C0A7E3B0E0E7E3F0E0C2
:1014200080818B7F8C93A8E3B0E0E8E3F0E08081DB
:1014300084608C938B81282F30E03D832C838C81BA
:101440009D818230910531F02C813D812330310521
:1014500049F010C0A4E5B0E0E4E5F0E080818F7BC6
:101460008C930DC0A4E5B0E0E4E5F0E080818064F9
:101470008C9305C081E0898302C081E089838981E2
:101480002B960FB6F894DEBF0FBECDBFCF91DF9184
:101490000895DF93CF9300D000D0CDB7DEB78A8315
:1014A00019828A81282F30E03C832B838B819C8199
:1014B0008130910589F02B813C8122303105A1F0EA
:1014C0008B819C810097C1F4ABE5B0E0EBE5F0E0E7
:1014D000808180648C9312C0ABE5B0E0EBE5F0E076
:1014E000808180688C930AC0ABE5B0E0EBE5F0E06A
:1014F000808180628C9302C081E0898389810F9012
:101500000F900F900F90CF91DF910895DF93CF93BD
:1015100000D000D0CDB7DEB78A8319828A81282F08
:1015200030E03C832B838B819C818130910589F055
:101530002B813C8122303105A1F08B819C81009769
:10154000C1F4ABE5B0E0EBE5F0E080818F7B8C93FC
:1015500012C0ABE5B0E0EBE5F0E080818F778C93D3
:101560000AC0ABE5B0E0EBE5F0E080818F7D8C93C5
:1015700002C081E0898389810F900F900F900F90B6
:10158000CF91DF910895DF93CF93CDB7DEB7AFE56D
:10159000B0E0EFE5F0E0808180688C93CF91DF913F
:1015A0000895DF93CF93CDB7DEB7AFE5B0E0EFE5B9
:1015B000F0E080818F778C93CF91DF910895DF9356
:1015C000CF9300D0CDB7DEB79A83898389819A8182
:1015D000009731F089819A81909371008093700017
:1015E0000F900F90CF91DF910895DF93CF9300D0AC
:1015F000CDB7DEB79A83898389819A81009731F0CC
:1016000089819A8190937300809372000F900F905C
:10161000CF91DF910895DF93CF9300D0CDB7DEB7A0
:101620009A83898389819A81009731F089819A818F
:1016300090937500809374000F900F90CF91DF917D
:1016400008951F920F920FB60F9211242F933F937C
:101650004F935F936F937F938F939F93AF93BF93BA
:10166000EF93FF93DF93CF93CDB7DEB780917000F8
:1016700090917100009729F0E0917000F091710055
:101680000995CF91DF91FF91EF91BF91AF919F911C
:101690008F917F916F915F914F913F912F910F901B
:1016A0000FBE0F901F9018951F920F920FB60F92BA
:1016B00011242F933F934F935F936F937F938F9357
:1016C0009F93AF93BF93EF93FF93DF93CF93CDB7E8
:1016D000DEB78091720090917300009729F0E0913D
:1016E0007200F09173000995CF91DF91FF91EF9116
:1016F000BF91AF919F918F917F916F915F914F912A
:101700003F912F910F900FBE0F901F9018951F9231
:101710000F920FB60F9211242F933F934F935F9325
:101720006F937F938F939F93AF93BF93EF93FF93A9
:10173000DF93CF93CDB7DEB78091740090917500A1
:10174000009729F0E0917400F09175000995CF9110
:10175000DF91FF91EF91BF91AF919F918F917F9119
:101760006F915F914F913F912F910F900FBE0F900E
:101770001F901895DF93CF9300D000D00F92CDB774
:10178000DEB78A836B8319828A81282F30E03D83FC
:101790002C838C819D8181309105D1F02C813D81FC
:1017A000223031052CF48C819D81009761F01FC09F
:1017B0002C813D812230310581F08C819D818330E7
:1017C000910581F014C0EAE3F0E08B81808311C0C1
:1017D000E7E3F0E08B8180830CC0E4E3F0E08B81F1
:1017E000808307C0E1E3F0E08B81808302C081E069
:1017F000898389810F900F900F900F900F90CF9158
:10180000DF910895DF93CF9300D000D00F92CDB732
:10181000DEB78A836B8319828A81282F30E03D836B
:101820002C838C819D8181309105D1F02C813D816B
:10183000223031052CF48C819D81009761F01FC00E
:101840002C813D812230310581F08C819D81833056
:10185000910581F014C0EBE3F0E08B81808311C02F
:10186000E8E3F0E08B8180830CC0E5E3F0E08B815E
:10187000808307C0E2E3F0E08B81808302C081E0D7
:10188000898389810F900F900F900F900F90CF91C7
:10189000DF910895DF93CF9300D000D000D0CDB773
:1018A000DEB78A837C836B8319828A81282F30E09C
:1018B0003E832D838D819E8181309105E1F02D81C4
:1018C0003E81223031052CF48D819E81009761F09C
:1018D00027C02D813E8122303105A1F08D819E816E
:1018E00083309105B1F01CC0E9E3F0E08081EB8129
:1018F000FC81808317C0E6E3F0E08081EB81FC810E
:10190000808310C0E3E3F0E08081EB81FC81808381
:1019100009C0E0E3F0E08081EB81FC81808302C0BC
:1019200081E08983898126960FB6F894DEBF0FBEC9
:10193000CDBFCF91DF910895DF93CF93CDB7DEB7C1
:1019400028970FB6F894DEBF0FBECDBF8A836B8396
:101950004C8319828B81883008F0F4C08C818823F5
:1019600009F077C08A81282F30E038872F838F8154
:1019700098858130910559F12F81388522303105C4
:101980002CF48F819885009769F060C02F8138858D
:101990002230310589F18F8198858330910509F4D2
:1019A00040C054C0AAE3B0E0EAE3F0E08081482FF1
:1019B0008B81282F30E081E090E0022E02C0880F5A
:1019C000991F0A94E2F7809584238C93BDC0A7E306
:1019D000B0E0E7E3F0E08081482F8B81282F30E0F2
:1019E00081E090E0022E02C0880F991F0A94E2F76E
:1019F000809584238C93A8C0A4E3B0E0E4E3F0E0F6
:101A00008081482F8B81282F30E081E090E0022EEA
:101A100002C0880F991F0A94E2F7809584238C9363
:101A200093C0A1E3B0E0E1E3F0E08081482F8B8137
:101A3000282F30E081E090E0022E02C0880F991F2D
:101A40000A94E2F7809584238C937EC081E0898399
:101A50007BC08C81813009F072C08A81282F30E0F0
:101A60003E832D838D819E818130910549F12D81A9
:101A70003E81223031052CF48D819E81009761F0EA
:101A80005BC02D813E812230310571F18D819E81B7
:101A900083309105E9F150C0AAE3B0E0EAE3F0E059
:101AA0008081482F8B81282F30E081E090E0022E4A
:101AB00002C0880F991F0A94E2F7842B8C9344C0CC
:101AC000A7E3B0E0E7E3F0E08081482F8B81282F87
:101AD00030E081E090E0022E02C0880F991F0A9446
:101AE000E2F7842B8C9330C0A4E3B0E0E4E3F0E0B1
:101AF0008081482F8B81282F30E081E090E0022EFA
:101B000002C0880F991F0A94E2F7842B8C931CC0A3
:101B1000A1E3B0E0E1E3F0E08081482F8B81282F42
:101B200030E081E090E0022E02C0880F991F0A94F5
:101B3000E2F7842B8C9308C081E0898305C081E0A3
:101B4000898302C081E08983898128960FB6F89441
:101B5000DEBF0FBECDBFCF91DF910895DF93CF934E
:101B6000CDB7DEB728970FB6F894DEBF0FBECDBF56
:101B70008A836B834C8319828B81883008F0F4C090
:101B80008C81813009F072C08A81282F30E038873B
:101B90002F838F8198858130910549F12F81388578
:101BA000223031052CF48F819885009761F05BC05D
:101BB0002F8138852230310571F18F8198858330EE
:101BC0009105E9F150C0ABE3B0E0EBE3F0E08081D8
:101BD000482F8B81282F30E081E090E0022E02C058
:101BE000880F991F0A94E2F7842B8C93BFC0A8E357
:101BF000B0E0E8E3F0E08081482F8B81282F30E0CF
:101C000081E090E0022E02C0880F991F0A94E2F74B
:101C1000842B8C93ABC0A5E3B0E0E5E3F0E08081DA
:101C2000482F8B81282F30E081E090E0022E02C007
:101C3000880F991F0A94E2F7842B8C9397C0A2E334
:101C4000B0E0E2E3F0E08081482F8B81282F30E084
:101C500081E090E0022E02C0880F991F0A94E2F7FB
:101C6000842B8C9383C081E0898380C08C818823FE
:101C700009F077C08A81282F30E03E832D838D8143
:101C80009E818130910559F12D813E8122303105AF
:101C90002CF48D819E81009769F060C02D813E817A
:101CA0002230310589F18D819E818330910509F4BF
:101CB00040C054C0ABE3B0E0EBE3F0E08081482FDC
:101CC0008B81282F30E081E090E0022E02C0880F47
:101CD000991F0A94E2F7809584238C9347C0A8E368
:101CE000B0E0E8E3F0E08081482F8B81282F30E0DE
:101CF00081E090E0022E02C0880F991F0A94E2F75B
:101D0000809584238C9332C0A5E3B0E0E5E3F0E056
:101D10008081482F8B81282F30E081E090E0022ED7
:101D200002C0880F991F0A94E2F7809584238C9350
:101D30001DC0A2E3B0E0E2E3F0E08081482F8B8198
:101D4000282F30E081E090E0022E02C0880F991F1A
:101D50000A94E2F7809584238C9308C081E08983FC
:101D600005C081E0898302C081E08983898128964A
:101D70000FB6F894DEBF0FBECDBFCF91DF910895AF
:101D8000DF93CF93CDB7DEB727970FB6F894DEBFBA
:101D90000FBECDBF8A836B835D834C8319828B8199
:101DA000883008F074C08A81282F30E03F832E836A
:101DB0004E815F814130510559F18E819F81823082
:101DC000910534F42E813F812115310569F05CC005
:101DD0004E815F814230510579F18E819F81833040
:101DE000910509F43DC050C0E9E3F0E08081282F5F
:101DF00030E08B81882F90E0A90102C0559547956E
:101E00008A95E2F7CA018170EC81FD81808341C02F
:101E1000E6E3F0E08081282F30E08B81882F90E08E
:101E2000A90102C0559547958A95E2F7CA018170CC
:101E3000EC81FD8180832DC0E3E3F0E08081282FD9
:101E400030E08B81882F90E0A90102C0559547951D
:101E50008A95E2F7CA018170EC81FD81808319C007
:101E6000E0E3F0E08081282F30E08B81882F90E044
:101E7000A90102C0559547958A95E2F7CA0181707C
:101E8000EC81FD81808305C081E0898302C081E00F
:101E90008983898127960FB6F894DEBF0FBECDBF28
:101EA000CF91DF910895DF93CF9300D0CDB7DEB708
:101EB00089836A8381E00E94DF0882E00E94F7083C
:101EC00089810E94F7088A810E94F70880E00E94B9
:101ED000DF080F900F90CF91DF910895DF93CF939C
:101EE00000D0CDB7DEB78A8381E00E94DF0883E0AF
:101EF0000E94F7088A810E94F70880E00E94F70894
:101F0000898380E00E94DF0889810F900F90CF9134
:101F1000DF910895DF93CF93CDB7DEB781E00E94C4
:101F2000DF0880EC0E94F70880E00E94DF08CF9174
:101F3000DF910895DF93CF9300D00F92CDB7DEB736
:101F400089836A834B8381E00E94DF0885E00E94D9
:101F5000F70889810E94F7088A810E94F7088B811F
:101F60000E94F70880E00E94DF080F900F900F900A
:101F7000CF91DF910895DF93CF9300D00F92CDB72B
:101F8000DEB789836A834B838AE269810E94530F9B
:101F900089E26A810E94530F88E26B810E94530F8D
:101FA0000F900F900F90CF91DF910895DF93CF9313
:101FB0000F92CDB7DEB789838981982F9295990FBB
:101FC000907E8FE060EE492F0E949A0F8EE00E9473
:101FD0006E0F982F92959695977089819817B1F703
:101FE0000F90CF91DF910895DF93CF93CDB7DEB7F8
:101FF0000E94AD070E948A0F8FE067E80E94530F8E
:102000008EE00E946E0F8295869587708430C1F7AE
:1020100080E861EB45E10E94BB0F80E00E94D60F93
:10202000CF91DF910895DF93CF93CDB7DEB7289797
:102030000FB6F894DEBF0FBECDBF8B837D836C835C
:102040004E8338872F8381E00E94DF0882E00E9460
:10205000F7088B810E94F70883E00E94F7088C81C3
:102060009D819695879596958795969587950E94DB
:10207000F7088C818295880F807E88600E94F7081F
:1020800080E00E94F70880E00E94F7088E818F7040
:102090000E94F7081A8219820FC029813A818F8124
:1020A0009885FC01E20FF31F80810E94F708898167
:1020B0009A8101969A8389838E81882F90E09C0172
:1020C0002F70307089819A818217930734F380E0F2
:1020D0000E94DF0881E00E94DF0881E80E94F70883
:1020E00080E00E94DF0828960FB6F894DEBF0FBE8E
:1020F000CDBFCF91DF910895DF93CF930F92CDB7EE
:10210000DEB789838981282F30E081E090E002C02A
:10211000880F991F2A95E2F7482F8981282F30E0F0
:1021200081E090E002C0880F991F2A95E2F7982F6E
:1021300080E6642F492F0E949A0F0F90CF91DF9174
:102140000895DF93CF9300D000D0CDB7DEB7898359
:102150007B836A834C8381E00E94DF0882E00E94D7
:10216000F70889810E94F7088C81882359F18A81B8
:102170009B819695879596958795969587950E94CC
:10218000F7088A818295880F807E88600E94F70810
:102190008A819B8196958795969587959695879543
:1021A000282F8A819B8199278827822B0E94F708F4
:1021B0008A819B81892F99278695869586950E948D
:1021C000F70810C08A819B8196958795969587958B
:1021D000969587950E94F7088A818295880F807E60
:1021E0000E94F70880E00E94DF080F900F900F9088
:1021F0000F90CF91DF910895DF93CF93CDB7DEB7E6
:102200000E94AD070E948A0F8FE067E80E94530F7B
:102210008EE00E946E0F8295869587708430C1F79C
:1022200080E861EB45E10E94BB0F80E061E070E077
:1022300041E00E94A11084E063E070E041E00E9470
:10224000A11080E26FE070E041E00E94A11084E202
:102250006FE070E041E00E94A11081E00E947C10DC
:102260008BE261E041E00E949A0F80E00E94D60F6D
:10227000CF91DF9108950F931F93DF93CF9300D0F9
:10228000CDB7DEB78A8381E00E94DF0883E00E9439
:10229000F7088A810E94F70819820DC08981082FEA
:1022A00010E080E00E94F708F801E657FF4F8083B6
:1022B00089818F5F898389818E3080F380E00E94DD
:1022C000DF088CE260E00E94530F0F900F90CF91D7
:1022D000DF911F910F9108950F931F93DF93CF9379
:1022E000CDB7DEB7CF54D0400FB6F894DEBF0FBEE7
:1022F000CDBFFE01E15BFF4F80E28083FE01E25B28
:10230000FF4F88E08083FE01E35BFF4F84E0808322
:10231000DE01A15BBF4FFE01E15BFF4F8081886161
:102320008C93DE01A25BBF4FFE01E25BFF4F808119
:1023300086608C93DE01A35BBF4FFE01E35BFF4F22
:10234000808182608C9382E06FEF0E94BA0B81E003
:1023500062E041E00E949C0C81E061E041E00E946B
:102360009C0C81E060E041E00E949C0CFE01E75B78
:10237000FF4F80E090E0A0E2B2E480839183A283EB
:10238000B3838E010B5B1F4FFE01E75BFF4F608144
:1023900071818281938120E030E04AEF54E40E9411
:1023A0001F02DC01CB01F80180839183A283B383F8
:1023B000FE01EB5BFF4F608171818281938120E0A0
:1023C00030E040E85FE30E942504882344F4FE01E6
:1023D000ED5BFF4F81E090E09183808364C0FE015C
:1023E000EB5BFF4F608171818281938120E03FEF41
:1023F0004FE757E40E94C50318160CF043C0FE01D6
:10240000E75BFF4F608171818281938120E030E042
:1024100040E251E40E941F02DC01CB018E010D5B02
:102420001F4FBC01CD010E944900DC01CB01F80126
:10243000918380831FC0FE01EF5BFF4F88EC90E02B
:1024400091838083FE01EF5BFF4F80819181019733
:10245000F1F7FE01EF5BFF4F91838083DE01AD5BFF
:10246000BF4FFE01ED5BFF4F808191810197119677
:102470009C938E93FE01ED5BFF4F808191810097CD
:10248000D1F624C08E010D5B1F4FFE01EB5BFF4FA9
:1024900060817181828193810E944900DC01CB01BE
:1024A000F80191838083FE01ED5BFF4F8081918174
:1024B000FE01FF9691838083FE01FF9680819181CA
:1024C0000197F1F7FE01FF9691838083FE01E15BA6
:1024D000FF4F80810E94751480E090E0A8E4B2E490
:1024E0008BAF9CAFADAFBEAF6BAD7CAD8DAD9EADD8
:1024F0002BEA3AEA4AE250E40E941F02DC01CB01D7
:102500008FAB98AFA9AFBAAF6FA978AD89AD9AADCF
:1025100020E030E040E85FE30E94250488231CF4BB
:1025200081E08EAB91C06FA978AD89AD9AAD20E006
:1025300030E04FE753E40E94C50318160CF07BC04F
:102540006BAD7CAD8DAD9EAD20E030E04AE754E44C
:102550000E941903DC01CB018AAB9BABACABBDABDA
:102560006AA97BA98CA99DA920E030E04AEF54E438
:102570000E941F02DC01CB018EA79FA7A8ABB9ABBD
:102580006EA57FA588A999A920E030E040E85FE327
:102590000E94250488232CF481E090E09DA78CA75D
:1025A0003FC06EA57FA588A999A920E03FEF4FE71E
:1025B00057E40E94C50318164CF56AA97BA98CA99B
:1025C0009DA920E030E040E251E40E941F02DC01BE
:1025D000CB01BC01CD010E944900DC01CB019DA7CC
:1025E0008CA70FC088EC90E09BA78AA78AA59BA523
:1025F0000197F1F79BA78AA78CA59DA501979DA799
:102600008CA78CA59DA5009769F724C06EA57FA512
:1026100088A999A90E944900DC01CB019DA78CA73C
:102620008CA59DA599A788A788A599A50197F1F7DD
:1026300099A788A70FC06FA978AD89AD9AAD0E9400
:102640004900DC01CB018EAB8EA98FA38FA18A95A7
:10265000F1F78FA3FE01E25BFF4F80810E947514AA
:1026600080E090E0A8E4B2E48BA39CA3ADA3BEA35A
:102670006BA17CA18DA19EA12BEA3AEA4AE250E42B
:102680000E941F02DC01CB018F8F98A3A9A3BAA3DC
:102690006F8D78A189A19AA120E030E040E85FE346
:1026A0000E94250488231CF481E08E8F91C06F8DD9
:1026B00078A189A19AA120E030E04FE753E40E947D
:1026C000C50318160CF07BC06BA17CA18DA19EA147
:1026D00020E030E04AE754E40E941903DC01CB011A
:1026E0008A8F9B8FAC8FBD8F6A8D7B8D8C8D9D8DDE
:1026F00020E030E04AEF54E40E941F02DC01CB01ED
:102700008E8B9F8BA88FB98F6E897F89888D998DCD
:1027100020E030E040E85FE30E94250488232CF4A9
:1027200081E090E09D8B8C8B3FC06E897F89888D86
:10273000998D20E03FEF4FE757E40E94C50318163C
:102740004CF56A8D7B8D8C8D9D8D20E030E040E2D4
:1027500051E40E941F02DC01CB01BC01CD010E94AB
:102760004900DC01CB019D8B8C8B0FC088EC90E085
:102770009B8B8A8B8A899B890197F1F79B8B8A8B2C
:102780008C899D8901979D8B8C8B8C899D89009765
:1027900069F724C06E897F89888D998D0E944900D0
:1027A000DC01CB019D8B8C8B8C899D89998B888BCF
:1027B000888999890197F1F7998B888B0FC06F8D64
:1027C00078A189A19AA10E944900DC01CB018E8FDA
:1027D0008E8D8F878F858A95F1F78F8781E00E9494
:1027E000751480E090E0A0E0B0E48B879C87AD8713
:1027F000BE876B857C858D859E8520E030E04AEF25
:1028000054E40E941F02DC01CB018F839887A987C3
:10281000BA876F81788589859A8520E030E040E825
:102820005FE30E94250488232CF481E090E09E83DE
:102830008D833FC06F81788589859A8520E03FEF41
:102840004FE757E40E94C50318164CF56B857C854D
:102850008D859E8520E030E040E251E40E941F0219
:10286000DC01CB01BC01CD010E944900DC01CB01A0
:102870009E838D830FC088EC90E09C838B838B813B
:102880009C810197F1F79C838B838D819E810197B9
:102890009E838D838D819E81009769F714C06F811F
:1028A000788589859A850E944900DC01CB019E8349
:1028B0008D838D819E819A83898389819A810197F5
:1028C000F1F79A838983FE01E35BFF4F80810E94C9
:1028D0007514C15BDF4F0FB6F894DEBF0FBECDBFDE
:1028E000CF91DF911F910F910895DF93CF93CDB7D3
:1028F000DEB769970FB6F894DEBF0FBECDBF898FE4
:1029000081E062E040E00E94AE0D81E061E040E0E5
:102910000E94AE0D81E060E041E00E94AE0D82E0D9
:10292000698D0E94020C81E060E040E00E94AE0DE3
:1029300080E090E0A0E8BFE38D8B9E8BAF8BB88FDB
:102940006D897E898F89988D2BEA3AEA4AE250E4B4
:102950000E941F02DC01CB01898B9A8BAB8BBC8B55
:1029600069897A898B899C8920E030E040E85FE3BF
:102970000E94250488231CF481E0888B91C069891A
:102980007A898B899C8920E030E04FE753E40E94EC
:10299000C50318160CF07BC06D897E898F89988DD0
:1029A00020E030E04AE754E40E941903DC01CB0147
:1029B0008C879D87AE87BF876C857D858E859F853B
:1029C00020E030E04AEF54E40E941F02DC01CB011A
:1029D00088879987AA87BB87688579858A859B853B
:1029E00020E030E040E85FE30E94250488232CF4D7
:1029F00081E090E09F838E833FC0688579858A85DA
:102A00009B8520E03FEF4FE757E40E94C50318166F
:102A10004CF56C857D858E859F8520E030E040E219
:102A200051E40E941F02DC01CB01BC01CD010E94D8
:102A30004900DC01CB019F838E830FC088EC90E0BE
:102A40009D838C838C819D810197F1F79D838C837D
:102A50008E819F8101979F838E838E819F810097B6
:102A600069F724C0688579858A859B850E9449001D
:102A7000DC01CB019F838E838E819F819B838A8320
:102A80008A819B810197F1F79B838A830FC06989B3
:102A90007A898B899C890E944900DC01CB01888B53
:102AA0008889898389818A95F1F7898369960FB628
:102AB000F894DEBF0FBECDBFCF91DF910895DF93B5
:102AC000CF93CDB7DEB769970FB6F894DEBF0FBED0
:102AD000CDBF898F81E062E041E00E94AE0D81E0D0
:102AE00061E040E00E94AE0D81E060E041E00E94C4
:102AF000AE0D82E0698D0E94020C81E060E040E052
:102B00000E94AE0D80E090E0A0E8BFE38D8B9E8B2D
:102B1000AF8BB88F6D897E898F89988D2BEA3AEAC1
:102B20004AE250E40E941F02DC01CB01898B9A8BA0
:102B3000AB8BBC8B69897A898B899C8920E030E0DA
:102B400040E85FE30E94250488231CF481E0888B21
:102B500091C069897A898B899C8920E030E04FE7B0
:102B600053E40E94C50318160CF07BC06D897E8962
:102B70008F89988D20E030E04AE754E40E941903E1
:102B8000DC01CB018C879D87AE87BF876C857D85F7
:102B90008E859F8520E030E04AEF54E40E941F02BA
:102BA000DC01CB0188879987AA87BB8768857985EF
:102BB0008A859B8520E030E040E85FE30E942504A1
:102BC00088232CF481E090E09F838E833FC068854A
:102BD00079858A859B8520E03FEF4FE757E40E9487
:102BE000C50318164CF56C857D858E859F8520E084
:102BF00030E040E251E40E941F02DC01CB01BC0145
:102C0000CD010E944900DC01CB019F838E830FC060
:102C100088EC90E09D838C838C819D810197F1F7F6
:102C20009D838C838E819F8101979F838E838E816C
:102C30009F81009769F724C0688579858A859B857F
:102C40000E944900DC01CB019F838E838E819F818E
:102C50009B838A838A819B810197F1F79B838A8377
:102C60000FC069897A898B899C890E944900DC019F
:102C7000CB01888B8889898389818A95F1F789833B
:102C800069960FB6F894DEBF0FBECDBFCF91DF912E
:102C90000895DF93CF93CDB7DEB768970FB6F8945A
:102CA000DEBF0FBECDBF81E00E94751480E090E0D2
:102CB000A8ECB2E48D8B9E8BAF8BB88F6D897E892B
:102CC0008F89988D2BEA3AEA4AE250E40E941F026B
:102CD000DC01CB01898B9A8BAB8BBC8B69897A89A0
:102CE0008B899C8920E030E040E85FE30E94250466
:102CF00088231CF481E0888B91C069897A898B894B
:102D00009C8920E030E04FE753E40E94C503181689
:102D10000CF07BC06D897E898F89988D20E030E032
:102D20004AE754E40E941903DC01CB018C879D879C
:102D3000AE87BF876C857D858E859F8520E030E0DE
:102D40004AEF54E40E941F02DC01CB018887998777
:102D5000AA87BB87688579858A859B8520E030E0D6
:102D600040E85FE30E94250488232CF481E090E092
:102D70009F838E833FC0688579858A859B8520E007
:102D80003FEF4FE757E40E94C50318164CF56C85DA
:102D90007D858E859F8520E030E040E251E40E94F1
:102DA0001F02DC01CB01BC01CD010E944900DC0106
:102DB000CB019F838E830FC088EC90E09D838C8332
:102DC0008C819D810197F1F79D838C838E819F81FA
:102DD00001979F838E838E819F81009769F724C01E
:102DE000688579858A859B850E944900DC01CB0135
:102DF0009F838E838E819F819B838A838A819B811F
:102E00000197F1F79B838A830FC069897A898B893F
:102E10009C890E944900DC01CB01888B88898983C9
:102E200089818A95F1F7898368960FB6F894DEBF99
:102E30000FBECDBFCF91DF910895DF93CF9300D028
:102E400000D000D0CDB7DEB78B836C8381E08A835E
:102E500080E889838B81282F30E03E832D838D810C
:102E60009E818130910531F02D813E8122303105E6
:102E700081F01EC08C81813448F49C818981890F46
:102E80008150898389810E94751414C082E08A83ED
:102E900011C08C81813148F49C818981890F815CCA
:102EA000898389810E94751405C082E08A8302C0EB
:102EB00083E08A838A8126960FB6F894DEBF0FBE20
:102EC000CDBFCF91DF910895DF93CF9300D00F92C4
:102ED000CDB7DEB79B838A8319820EC08981282FE4
:102EE00030E08A819B81FC01E20FF31F80810E9408
:102EF0005F1589818F5F89838981282F30E08A81DE
:102F00009B81FC01E20FF31F8081882339F70F902A
:102F10000F900F90CF91DF910895DF93CF9300D062
:102F200000D000D0CDB7DEB79E838D838D819E818A
:102F3000009709F45AC01C821B821A82198228C089
:102F40008D819E812AE030E0B9010E94061A8A83B1
:102F50008B819C819C01220F331FC901880F991F0F
:102F6000880F991F280F391F8A81882F90E0820FC0
:102F7000931F9C838B838D819E812AE030E0B90171
:102F80000E94061ACB019E838D8389818F5F89837E
:102F90008D819E810097A1F619C08B819C812AE0CA
:102FA00030E0B9010E94061A8A838B819C812AE055
:102FB00030E0B9010E94061ACB019C838B838A8181
:102FC000805D0E945F158981815089838B819C81FE
:102FD000009719F706C080E30E945F158981815030
:102FE000898389818823B9F703C080E30E945F1534
:102FF00026960FB6F894DEBF0FBECDBFCF91DF91FE
:103000000895DF93CF930F92CDB7DEB788E1898320
:1030100089818460898389810E9475140F90CF9182
:10302000DF910895DF93CF930F92CDB7DEB788E19C
:10303000898389818B7F898389810E9475140F9090
:10304000CF91DF910895DF93CF930F92CDB7DEB785
:1030500080E1898389818B7F898389810E947514AE
:103060000F90CF91DF910895DF93CF930F92CDB75B
:10307000DEB780E1898389818460898389810E94A8
:1030800075140F90CF91DF910895DF93CF93CDB753
:10309000DEB72F970FB6F894DEBF0FBECDBF86E523
:1030A0008093870083E28093890080E061E041E0C3
:1030B0000E949C0C80E062E041E00E949C0C80E059
:1030C00063E041E00E949C0C80E064E041E00E94EB
:1030D0009C0C80E065E041E00E949C0C80E066E092
:1030E00041E00E949C0C9E012E5F3F4F3C872B8746
:1030F00088E690E09E878D8795E09F87ED85FE8529
:1031000000802D853E852F5F3F4F3E872D87EB85C5
:10311000FC8500822B853C852F5F3F4F3C872B87AA
:103120003F8531503F878F85882341F7198280E0A2
:1031300062E00E9411098BE899E10E94DF0A80E0B9
:103140000E94490A0E94C30ACE0102960E944F06BD
:1031500081EF99E10E9447070E94F40F0E94FC1042
:1031600080E066E041E00E94AE0D80918600809391
:1031700088000EC08981882F90E0FC01E957FF4F3D
:103180008081882F90E00E94000789818F5F89836A
:103190008981882F90E0FC01E957FF4F80818332BD
:1031A00049F78981882F90E0FC01E957FF4F808122
:1031B000882F90E00E9400071982809186008093FA
:1031C000880080917600E82FF0E0FA87E98729856A
:1031D0003A8529343105C9F089859A858A34910563
:1031E0003CF4E985FA85E434F10509F47FC0E4CFC5
:1031F00029853A852335310509F478C089859A8572
:103200008237910509F44FC0D7CF80917700E82F1E
:10321000F0E0F887EF832F8138852C36310559F19E
:103220008F8198858D3691055CF4EF81F885E236C3
:10323000F105C9F02F8138852636310561F0BCCF04
:103240008F81988582379105F1F0EF81F885E3371A
:10325000F10509F1B1CF0E94C41980E061E041E0BD
:103260000E94AE0DA9CF0E94CB1980E062E041E040
:103270000E94AE0DA1CF0E94D21980E063E041E030
:103280000E94AE0D99CF0E94D91980E064E041E020
:103290000E94AE0D91CF0E94E01980E065E041E010
:1032A0000E94AE0D89CF90917700809178008917A8
:1032B00018F40E94D91980CF9091770080917800FE
:1032C000981718F40E94D21977CF0E94C41974CFAE
:1032D0008981882F90E0FC01EA58FF4F8081882F78
:1032E00090E00E94000789818F5F89838981882F00
:1032F00090E0FC01EA58FF4F8081833249F78981D1
:10330000882F90E0FC01EA58FF4F8081882F90E0E1
:103310000E94000751CFDF93CF930F92CDB7DEB756
:1033200080E60E943B11198212C08981282F30E06B
:103330008981882F90E00696FC01E657FF4F808137
:10334000F901EA58FF4F808389818F5F89838981E2
:10335000882F90E00696FC01E657FF4F808183326C
:1033600021F78981282F30E08981882F90E0069607
:10337000FC01E657FF4F8081F901EA58FF4F808337
:103380000F90CF91DF910895DF93CF93CDB7DEB744
:10339000CF91DF910895DF93CF93CDB7DEB7CF9173
:1033A000DF910895DF93CF93CDB7DEB7CF91DF9153
:1033B0000895DF93CF93CDB7DEB7CF91DF91089516
:1033C000DF93CF93CDB7DEB7CF91DF910895DF9331
:1033D000CF930F92CDB7DEB789830F90CF91DF9156
:1033E0000895DF93CF930F92CDB7DEB78983909185
:1033F00086008981891731F089810E94E7198981C6
:10340000809386000F90CF91DF910895AA1BBB1B7C
:1034100051E107C0AA1FBB1FA617B70710F0A61BD4
:10342000B70B881F991F5A95A9F780959095BC01F5
:10343000CD0108952F923F924F925F926F927F92AB
:103440008F929F92AF92BF92CF92DF92EF92FF92B4
:103450000F931F93CF93DF93CDB7DEB7CA1BDB0B60
:103460000FB6F894DEBF0FBECDBF09942A88398805
:1034700048885F846E847D848C849B84AA84B9840C
:10348000C884DF80EE80FD800C811B81AA81B98118
:10349000CE0FD11D0FB6F894DEBF0FBECDBFED012C
:0634A0000895F894FFCF2F
:0E34A600000000000000000003030000010011
:00000001FF
